:020000001628C0
:0E0006008312031321088A00200882000800DC
:1000140003208A110A128000840AA00A0319A10A83
:08002400F003031D0A28080087
:10002C00831603138601831286013F3086000B3042
:10003C00FB002630FC005D30FD00FD0B2328FC0B83
:10004C002328FB0B232800000000063086000B3011
:10005C00FB002630FC005D30FD00FD0B3328FC0B53
:10006C003328FB0B3328000000005B3086000B307C
:10007C00FB002630FC005D30FD00FD0B4328FC0B23
:10008C004328FB0B4328000000004F3086000B3048
:10009C00FB002630FC005D30FD00FD0B5328FC0BF3
:1000AC005328FB0B532800000000663086000B30F1
:1000BC00FB002630FC005D30FD00FD0B6328FC0BC3
:1000CC006328FB0B6328000000006D3086000B30AA
:1000DC00FB002630FC005D30FD00FD0B7328FC0B93
:1000EC007328FB0B7328000000007D3086000B305A
:1000FC00FB002630FC005D30FD00FD0B8328FC0B63
:10010C008328FB0B832800000000073086000B308F
:10011C00FB002630FC005D30FD00FD0B9328FC0B32
:10012C009328FB0B9328000000007F3086000B30D7
:10013C00FB002630FC005D30FD00FD0BA328FC0B02
:10014C00A328FB0BA32800000000673086000B30AF
:10015C00FB002630FC005D30FD00FD0BB328FC0BD2
:0E016C00B328FB0BB328000000001B28BC28A2
:02400E004A2F37
:00000001FF
