:020000001628C0
:0E0006008312031321088A00200882000800DC
:1000140003208A110A128000840AA00A0319A10A83
:08002400F003031D0A28080087
:10002C0083120313A201A301831686018701831295
:10003C00860187013F3086008230FC00DD30FD00F8
:10004C00FD0B2628FC0B262800000000063086003D
:10005C008230FC00DD30FD00FD0B3228FC0B322819
:10006C00000000005B3086008230FC00DD30FD00BB
:10007C00FD0B3E28FC0B3E28000000004F30860094
:10008C008230FC00DD30FD00FD0B4A28FC0B4A28B9
:10009C0000000000663086008230FC00DD30FD0080
:1000AC00FD0B5628FC0B5628000000006D30860016
:1000BC008230FC00DD30FD00FD0B6228FC0B622859
:1000CC00000000007D3086008230FC00DD30FD0039
:1000DC00FD0B6E28FC0B6E2800000000073086001C
:1000EC008230FC00DD30FD00FD0B7A28FC0B7A28F9
:1000FC00000000007F3086008230FC00DD30FD0007
:10010C00FD0B8628FC0B862800000000673086005B
:10011C00AD283F308700FD2806308700FD285B3076
:10012C008700FD284F308700FD2866308700FD28AA
:10013C006D308700FD287D308700FD280730870053
:10014C00FD287F308700FD2867308700FD280030B0
:10015C002306031DB3280030220603198F28003014
:10016C002306031DBB2801302206031992280030F8
:10017C002306031DC32802302206031995280030DC
:10018C002306031DCB2803302206031998280030C0
:10019C002306031DD3280430220603199B280030A4
:1001AC002306031DDB280530220603199E28003088
:1001BC002306031DE328063022060319A12800306C
:1001CC002306031DEB28073022060319A428003050
:1001DC002306031DF328083022060319A728003034
:1001EC002306031DFB28093022060319AA28A20A9C
:1001FC000319A30A8030F000803023067002031D1F
:10020C0009292208093C03180D29A201A301023077
:10021C00FB000430FC00BA30FD00FD0B1329FC0B75
:0C022C001329FB0B1329000020281B29BC
:02400E004A2F37
:00000001FF
